:100000000C9434000C9451000C9451000C94510049
:100010000C9451000C9451000C9451000C9451001C
:100020000C9451000C9451000C9451000C9451000C
:100030000C9451000C9451000C9451000C945100FC
:100040000C9451000C9451000C9451000C945100EC
:100050000C9451000C9451000C9451000C945100DC
:100060000C9451000C94510011241FBECFEFD8E026
:10007000DEBFCDBF11E0A0E0B1E0EAE1F2E002C0F6
:1000800005900D92A430B107D9F721E0A4E0B1E0CA
:1000900001C01D92A930B207E1F70E94C2000C9482
:1000A0000B010C94000019990DC0809105019091ED
:1000B00006010196909306018093050181E08093EB
:1000C00004010895809104018823D9F090910701DB
:1000D0002091050130910601293C310598F09111DC
:1000E0000AC08091080190E0019663E070E00E94F0
:1000F000E30080930801109206011092050110920E
:100100000401089581E0911180E080930701F3CF0D
:1001100080910201880F79F08093020180910201A1
:100120008BB92FEF81EE94E0215080409040E1F7B1
:1001300000C00000089581E0EFCF80910101869515
:1001400079F080930101809101018BB92FEF81EE4D
:1001500094E0215080409040E1F700C000000895F5
:1001600080E8EFCF809100018095809300018BB9EA
:100170002FEF81EE94E0215080409040E1F700C0E5
:10018000000008958FEF8AB92198299A0E945300A0
:1001900080910701882381F080910801813049F026
:1001A00028F0823099F70E94B200F0CF0E948800B8
:1001B000EDCF0E949D00EACF8FE39CE90197F1F714
:1001C00000C00000E3CF97FB072E16F4009407D081
:1001D00077FD09D00E94F70007FC05D03EF490950A
:1001E00081959F4F0895709561957F4F0895AA1B43
:1001F000BB1B51E107C0AA1FBB1FA617B70710F012
:10020000A61BB70B881F991F5A95A9F78095909543
:0A021000BC01CD010895F894FFCF62
:04021A00018001005E
:00000001FF
